{
  "_format": "hh-sol-artifact-1",
  "contractName": "CryptoFundit",
  "sourceName": "contracts/CryptoFundit.sol",
  "abi": [
    {
      "inputs": [],
      "stateMutability": "nonpayable",
      "type": "constructor"
    },
    {
      "anonymous": false,
      "inputs": [
        {
          "indexed": true,
          "internalType": "uint256",
          "name": "id",
          "type": "uint256"
        },
        {
          "indexed": false,
          "internalType": "uint256",
          "name": "totalRaised",
          "type": "uint256"
        }
      ],
      "name": "CampaignCompleted",
      "type": "event"
    },
    {
      "anonymous": false,
      "inputs": [
        {
          "indexed": true,
          "internalType": "uint256",
          "name": "id",
          "type": "uint256"
        },
        {
          "indexed": true,
          "internalType": "address",
          "name": "owner",
          "type": "address"
        },
        {
          "indexed": false,
          "internalType": "string",
          "name": "title",
          "type": "string"
        },
        {
          "indexed": false,
          "internalType": "uint256",
          "name": "target",
          "type": "uint256"
        },
        {
          "indexed": false,
          "internalType": "uint256",
          "name": "deadline",
          "type": "uint256"
        }
      ],
      "name": "CampaignCreated",
      "type": "event"
    },
    {
      "anonymous": false,
      "inputs": [
        {
          "indexed": true,
          "internalType": "uint256",
          "name": "id",
          "type": "uint256"
        },
        {
          "indexed": true,
          "internalType": "address",
          "name": "deletedBy",
          "type": "address"
        }
      ],
      "name": "CampaignDeleted",
      "type": "event"
    },
    {
      "anonymous": false,
      "inputs": [
        {
          "indexed": true,
          "internalType": "uint256",
          "name": "id",
          "type": "uint256"
        }
      ],
      "name": "CampaignPaused",
      "type": "event"
    },
    {
      "anonymous": false,
      "inputs": [
        {
          "indexed": true,
          "internalType": "uint256",
          "name": "id",
          "type": "uint256"
        }
      ],
      "name": "CampaignResumed",
      "type": "event"
    },
    {
      "anonymous": false,
      "inputs": [
        {
          "indexed": true,
          "internalType": "uint256",
          "name": "id",
          "type": "uint256"
        },
        {
          "indexed": false,
          "internalType": "string",
          "name": "title",
          "type": "string"
        },
        {
          "indexed": false,
          "internalType": "string",
          "name": "description",
          "type": "string"
        },
        {
          "indexed": false,
          "internalType": "uint256",
          "name": "target",
          "type": "uint256"
        },
        {
          "indexed": false,
          "internalType": "uint256",
          "name": "deadline",
          "type": "uint256"
        },
        {
          "indexed": false,
          "internalType": "string",
          "name": "image",
          "type": "string"
        }
      ],
      "name": "CampaignUpdated",
      "type": "event"
    },
    {
      "anonymous": false,
      "inputs": [
        {
          "indexed": true,
          "internalType": "uint256",
          "name": "id",
          "type": "uint256"
        },
        {
          "indexed": true,
          "internalType": "address",
          "name": "donator",
          "type": "address"
        },
        {
          "indexed": false,
          "internalType": "uint256",
          "name": "amount",
          "type": "uint256"
        }
      ],
      "name": "DonationReceived",
      "type": "event"
    },
    {
      "anonymous": false,
      "inputs": [
        {
          "indexed": true,
          "internalType": "uint256",
          "name": "id",
          "type": "uint256"
        },
        {
          "indexed": true,
          "internalType": "address",
          "name": "owner",
          "type": "address"
        },
        {
          "indexed": false,
          "internalType": "uint256",
          "name": "amount",
          "type": "uint256"
        }
      ],
      "name": "FundsWithdrawn",
      "type": "event"
    },
    {
      "inputs": [
        {
          "internalType": "uint256",
          "name": "",
          "type": "uint256"
        }
      ],
      "name": "campaigns",
      "outputs": [
        {
          "internalType": "address payable",
          "name": "owner",
          "type": "address"
        },
        {
          "internalType": "string",
          "name": "title",
          "type": "string"
        },
        {
          "internalType": "string",
          "name": "description",
          "type": "string"
        },
        {
          "internalType": "uint256",
          "name": "target",
          "type": "uint256"
        },
        {
          "internalType": "uint256",
          "name": "deadline",
          "type": "uint256"
        },
        {
          "internalType": "uint256",
          "name": "totalRaised",
          "type": "uint256"
        },
        {
          "internalType": "uint256",
          "name": "currentBalance",
          "type": "uint256"
        },
        {
          "internalType": "string",
          "name": "image",
          "type": "string"
        },
        {
          "internalType": "enum CryptoFundit.CampaignState",
          "name": "state",
          "type": "uint8"
        }
      ],
      "stateMutability": "view",
      "type": "function"
    },
    {
      "inputs": [
        {
          "internalType": "string",
          "name": "_title",
          "type": "string"
        },
        {
          "internalType": "string",
          "name": "_description",
          "type": "string"
        },
        {
          "internalType": "uint256",
          "name": "_target",
          "type": "uint256"
        },
        {
          "internalType": "uint256",
          "name": "_deadline",
          "type": "uint256"
        },
        {
          "internalType": "string",
          "name": "_image",
          "type": "string"
        }
      ],
      "name": "createCampaign",
      "outputs": [
        {
          "internalType": "uint256",
          "name": "",
          "type": "uint256"
        }
      ],
      "stateMutability": "nonpayable",
      "type": "function"
    },
    {
      "inputs": [
        {
          "internalType": "uint256",
          "name": "_id",
          "type": "uint256"
        }
      ],
      "name": "deleteCampaign",
      "outputs": [],
      "stateMutability": "nonpayable",
      "type": "function"
    },
    {
      "inputs": [
        {
          "internalType": "uint256",
          "name": "_id",
          "type": "uint256"
        }
      ],
      "name": "donateToCampaign",
      "outputs": [],
      "stateMutability": "payable",
      "type": "function"
    },
    {
      "inputs": [
        {
          "internalType": "uint256",
          "name": "_id",
          "type": "uint256"
        }
      ],
      "name": "endCampaign",
      "outputs": [],
      "stateMutability": "nonpayable",
      "type": "function"
    },
    {
      "inputs": [
        {
          "internalType": "uint256",
          "name": "_id",
          "type": "uint256"
        }
      ],
      "name": "getCampaign",
      "outputs": [
        {
          "internalType": "address",
          "name": "owner",
          "type": "address"
        },
        {
          "internalType": "string",
          "name": "title",
          "type": "string"
        },
        {
          "internalType": "string",
          "name": "description",
          "type": "string"
        },
        {
          "internalType": "uint256",
          "name": "target",
          "type": "uint256"
        },
        {
          "internalType": "uint256",
          "name": "deadline",
          "type": "uint256"
        },
        {
          "internalType": "uint256",
          "name": "totalRaised",
          "type": "uint256"
        },
        {
          "internalType": "uint256",
          "name": "currentBalance",
          "type": "uint256"
        },
        {
          "internalType": "string",
          "name": "image",
          "type": "string"
        },
        {
          "internalType": "enum CryptoFundit.CampaignState",
          "name": "state",
          "type": "uint8"
        },
        {
          "internalType": "uint256",
          "name": "donatorCount",
          "type": "uint256"
        }
      ],
      "stateMutability": "view",
      "type": "function"
    },
    {
      "inputs": [
        {
          "internalType": "uint256",
          "name": "_id",
          "type": "uint256"
        }
      ],
      "name": "getCampaignStats",
      "outputs": [
        {
          "internalType": "uint256",
          "name": "totalRaised",
          "type": "uint256"
        },
        {
          "internalType": "uint256",
          "name": "currentBalance",
          "type": "uint256"
        },
        {
          "internalType": "uint256",
          "name": "target",
          "type": "uint256"
        },
        {
          "internalType": "uint256",
          "name": "percentageReached",
          "type": "uint256"
        },
        {
          "internalType": "enum CryptoFundit.CampaignState",
          "name": "state",
          "type": "uint8"
        },
        {
          "internalType": "uint256",
          "name": "deadline",
          "type": "uint256"
        },
        {
          "internalType": "bool",
          "name": "isActive",
          "type": "bool"
        }
      ],
      "stateMutability": "view",
      "type": "function"
    },
    {
      "inputs": [
        {
          "internalType": "uint256",
          "name": "_id",
          "type": "uint256"
        }
      ],
      "name": "getDonators",
      "outputs": [
        {
          "internalType": "address[]",
          "name": "",
          "type": "address[]"
        },
        {
          "internalType": "uint256[]",
          "name": "",
          "type": "uint256[]"
        }
      ],
      "stateMutability": "view",
      "type": "function"
    },
    {
      "inputs": [
        {
          "internalType": "address",
          "name": "_address",
          "type": "address"
        }
      ],
      "name": "isContractOwner",
      "outputs": [
        {
          "internalType": "bool",
          "name": "",
          "type": "bool"
        }
      ],
      "stateMutability": "view",
      "type": "function"
    },
    {
      "inputs": [
        {
          "internalType": "uint256",
          "name": "_id",
          "type": "uint256"
        }
      ],
      "name": "pauseCampaign",
      "outputs": [],
      "stateMutability": "nonpayable",
      "type": "function"
    },
    {
      "inputs": [
        {
          "internalType": "uint256",
          "name": "_id",
          "type": "uint256"
        }
      ],
      "name": "restoreCampaign",
      "outputs": [],
      "stateMutability": "nonpayable",
      "type": "function"
    },
    {
      "inputs": [
        {
          "internalType": "uint256",
          "name": "_id",
          "type": "uint256"
        }
      ],
      "name": "resumeCampaign",
      "outputs": [],
      "stateMutability": "nonpayable",
      "type": "function"
    },
    {
      "inputs": [],
      "name": "totalCampaigns",
      "outputs": [
        {
          "internalType": "uint256",
          "name": "",
          "type": "uint256"
        }
      ],
      "stateMutability": "view",
      "type": "function"
    },
    {
      "inputs": [
        {
          "internalType": "uint256",
          "name": "_id",
          "type": "uint256"
        },
        {
          "internalType": "string",
          "name": "_title",
          "type": "string"
        },
        {
          "internalType": "string",
          "name": "_description",
          "type": "string"
        },
        {
          "internalType": "uint256",
          "name": "_target",
          "type": "uint256"
        },
        {
          "internalType": "uint256",
          "name": "_deadline",
          "type": "uint256"
        },
        {
          "internalType": "string",
          "name": "_image",
          "type": "string"
        }
      ],
      "name": "updateCampaign",
      "outputs": [],
      "stateMutability": "nonpayable",
      "type": "function"
    },
    {
      "inputs": [
        {
          "internalType": "uint256",
          "name": "_id",
          "type": "uint256"
        },
        {
          "internalType": "uint256",
          "name": "_amount",
          "type": "uint256"
        }
      ],
      "name": "withdrawFunds",
      "outputs": [],
      "stateMutability": "nonpayable",
      "type": "function"
    }
  ],
  "bytecode": "0x60a060405234801561001057600080fd5b5033608052608051611f4b61003e600039600081816102d401528181610a130152610c0b0152611f4b6000f3fe6080604052600436106100e85760003560e01c8063759701931161008a578063dd0408ae11610059578063dd0408ae14610297578063de117688146102b7578063de99347a14610314578063e52531051461033457600080fd5b806375970193146102175780639e3696d914610237578063a79f928d14610257578063d4e3dd6f1461027757600080fd5b806342a4fda8116100c657806342a4fda8146101795780635598f8cc1461018e5780635d414b1e146101c4578063660bf9de146101e457600080fd5b806302932f56146100ed5780630fa91fa914610116578063141961bc14610144575b600080fd5b3480156100f957600080fd5b5061010360015481565b6040519081526020015b60405180910390f35b34801561012257600080fd5b50610136610131366004611761565b610354565b60405161010d92919061177a565b34801561015057600080fd5b5061016461015f366004611761565b610421565b60405161010d9998979695949392919061187c565b61018c610187366004611761565b61060d565b005b34801561019a57600080fd5b506101ae6101a9366004611761565b6107d9565b60405161010d9a99989796959493929190611900565b3480156101d057600080fd5b5061018c6101df366004611761565b610a08565b3480156101f057600080fd5b506102046101ff366004611761565b610b01565b60405161010d979695949392919061198c565b34801561022357600080fd5b5061018c610232366004611761565b610c00565b34801561024357600080fd5b5061018c610252366004611761565b610dbb565b34801561026357600080fd5b5061018c610272366004611a73565b610eee565b34801561028357600080fd5b50610103610292366004611b17565b611120565b3480156102a357600080fd5b5061018c6102b2366004611761565b611227565b3480156102c357600080fd5b506103046102d2366004611bb3565b7f00000000000000000000000000000000000000000000000000000000000000006001600160a01b0390811691161490565b604051901515815260200161010d565b34801561032057600080fd5b5061018c61032f366004611761565b611475565b34801561034057600080fd5b5061018c61034f366004611be3565b611569565b600081815260208181526040918290206009810180548451818502810185019095528085526060948594600a85019284918301828280156103be57602002820191906000526020600020905b81546001600160a01b031681526001909101906020018083116103a0575b505050505091508080548060200260200160405190810160405280929190818152602001828054801561041057602002820191906000526020600020905b8154815260200190600101908083116103fc575b505050505090509250925050915091565b600060208190529081526040902080546001820180546001600160a01b03909216929161044d90611c05565b80601f016020809104026020016040519081016040528092919081815260200182805461047990611c05565b80156104c65780601f1061049b576101008083540402835291602001916104c6565b820191906000526020600020905b8154815290600101906020018083116104a957829003601f168201915b5050505050908060020180546104db90611c05565b80601f016020809104026020016040519081016040528092919081815260200182805461050790611c05565b80156105545780601f1061052957610100808354040283529160200191610554565b820191906000526020600020905b81548152906001019060200180831161053757829003601f168201915b50505050509080600301549080600401549080600501549080600601549080600701805461058190611c05565b80601f01602080910402602001604051908101604052809291908181526020018280546105ad90611c05565b80156105fa5780601f106105cf576101008083540402835291602001916105fa565b820191906000526020600020905b8154815290600101906020018083116105dd57829003601f168201915b5050506008909301549192505060ff1689565b600081815260208190526040812090600882015460ff16600381111561063557610635611844565b1461065b5760405162461bcd60e51b815260040161065290611c3f565b60405180910390fd5b806004015442106106a75760405162461bcd60e51b8152602060048201526016602482015275151a194818d85b5c185a59db881a185cc8195b99195960521b6044820152606401610652565b600034116107025760405162461bcd60e51b815260206004820152602260248201527f446f6e6174696f6e206d7573742062652067726561746572207468616e207a65604482015261726f60f01b6064820152608401610652565b600981018054600181810183556000928352602080842090920180546001600160a01b03191633908117909155600a85018054928301815584528284203492018290558352600b840190915260408220805491929091610763908490611c85565b925050819055503481600501600082825461077e9190611c85565b92505081905550348160060160008282546107999190611c85565b9091555050604051348152339083907f0b5b4c52969ff7329ecf7ee536409fda87812b15a8622bc6e8cdeab3aee14a269060200160405180910390a35050565b600081815260208190526040812080546003820154600483015460058401546006850154600886015460098701546001880180546060998a998c998a998a998a998e998b998a9997986001600160a01b03909716979660028a01969594939260078b019260ff90911691899061084e90611c05565b80601f016020809104026020016040519081016040528092919081815260200182805461087a90611c05565b80156108c75780601f1061089c576101008083540402835291602001916108c7565b820191906000526020600020905b8154815290600101906020018083116108aa57829003601f168201915b505050505098508780546108da90611c05565b80601f016020809104026020016040519081016040528092919081815260200182805461090690611c05565b80156109535780601f1061092857610100808354040283529160200191610953565b820191906000526020600020905b81548152906001019060200180831161093657829003601f168201915b5050505050975082805461096690611c05565b80601f016020809104026020016040519081016040528092919081815260200182805461099290611c05565b80156109df5780601f106109b4576101008083540402835291602001916109df565b820191906000526020600020905b8154815290600101906020018083116109c257829003601f168201915b505050505092509a509a509a509a509a509a509a509a509a509a50509193959799509193959799565b336001600160a01b037f00000000000000000000000000000000000000000000000000000000000000001614610a505760405162461bcd60e51b815260040161065290611c9e565b60008181526020819052604090206003600882015460ff166003811115610a7957610a79611844565b14610ac65760405162461bcd60e51b815260206004820152601760248201527f43616d706169676e206973206e6f742064656c657465640000000000000000006044820152606401610652565b60088101805460ff1916905560405182907f25128b02d37802123547e1526ab020238abf16bbc37a5bd0a918d5088b016e9590600090a25050565b60008181526020819052604081208190819081908190819081906003600882015460ff166003811115610b3657610b36611844565b03610b795760405162461bcd60e51b815260206004820152601360248201527210d85b5c185a59db881a5cc819195b195d1959606a1b6044820152606401610652565b6000816003015482600501546064610b919190611ce9565b610b9b9190611d00565b9050600080600884015460ff166003811115610bb957610bb9611844565b148015610bc95750826004015442105b6005840154600685015460038601546008870154600490970154929f919e509c50939a5060ff909416985092965091945092505050565b336001600160a01b037f00000000000000000000000000000000000000000000000000000000000000001614610c485760405162461bcd60e51b815260040161065290611c9e565b60008181526020819052604090206003600882015460ff166003811115610c7157610c71611844565b03610cbe5760405162461bcd60e51b815260206004820152601b60248201527f43616d706169676e20697320616c72656164792064656c6574656400000000006044820152606401610652565b600681015415610d7b5760068101805460009182905582546040519192916001600160a01b039091169083908381818185875af1925050503d8060008114610d22576040519150601f19603f3d011682016040523d82523d6000602084013e610d27565b606091505b5050905080610d785760405162461bcd60e51b815260206004820152601e60248201527f4661696c656420746f2073656e642072656d61696e696e672066756e647300006044820152606401610652565b50505b60088101805460ff19166003179055604051339083907f8b2c4705c247d8d9f05477ce4c82c82947d7b6274633d30c3f1a0e07a66d4bb690600090a35050565b600081815260208190526040902080546001600160a01b03163314610e3a5760405162461bcd60e51b815260206004820152602f60248201527f4f6e6c79207468652063616d706169676e206f776e65722063616e207265737560448201526e36b2903a34329031b0b6b830b4b3b760891b6064820152608401610652565b6001600882015460ff166003811115610e5557610e55611844565b14610e9b5760405162461bcd60e51b815260206004820152601660248201527510d85b5c185a59db881a5cc81b9bdd081c185d5cd95960521b6044820152606401610652565b80600401544210610ac65760405162461bcd60e51b815260206004820152601c60248201527f43616d706169676e20646561646c696e652068617320706173736564000000006044820152606401610652565b600086815260208190526040902080546001600160a01b03163314610f6d5760405162461bcd60e51b815260206004820152602f60248201527f4f6e6c79207468652063616d706169676e206f776e65722063616e207570646160448201526e3a32903a34329031b0b6b830b4b3b760891b6064820152608401610652565b6000600882015460ff166003811115610f8857610f88611844565b1480610fac57506001600882015460ff166003811115610faa57610faa611844565b145b61100c5760405162461bcd60e51b815260206004820152602b60248201527f43616d706169676e206d75737420626520616374697665206f7220706175736560448201526a6420746f2075706461746560a81b6064820152608401610652565b42831161102b5760405162461bcd60e51b815260040161065290611d22565b806005015484101561109c5760405162461bcd60e51b815260206004820152603460248201527f4e6577207461726765742063616e6e6f74206265206c657373207468616e20616044820152731b5bdd5b9d08185b1c9958591e481c985a5cd95960621b6064820152608401610652565b600181016110aa8782611db3565b50600281016110b98682611db3565b506003810184905560048101839055600781016110d68382611db3565b50867f511362c21f901eab85430d237c9c682db0a50101f412ad099bed8a8f74846a6d878787878760405161110f959493929190611e73565b60405180910390a250505050505050565b60004283116111415760405162461bcd60e51b815260040161065290611d22565b60018054600090815260208190526040902080546001600160a01b031916331781559081016111708882611db3565b506002810161117f8782611db3565b5060038101859055600481018490556007810161119c8482611db3565b5060088101805460ff1916905560006005820181905560068201556001546040513391907fdc26653af5b99b2da33e2ad69ee6600d9aeccc82b034501db4338309615ca238906111f1908b908a908a90611ec4565b60405180910390a36001805490600061120983611ee9565b91905055506001805461121c9190611f02565b979650505050505050565b600081815260208190526040902080546001600160a01b0316331480611251575080600401544210155b6112a85760405162461bcd60e51b815260206004820152602260248201527f4f6e6c79206f776e65722063616e20656e64206265666f726520646561646c696044820152616e6560f01b6064820152608401610652565b6002600882015460ff1660038111156112c3576112c3611844565b036113095760405162461bcd60e51b815260206004820152601660248201527510d85b5c185a59db88185b1c9958591e48195b99195960521b6044820152606401610652565b6003600882015460ff16600381111561132457611324611844565b036113675760405162461bcd60e51b815260206004820152601360248201527210d85b5c185a59db881a5cc819195b195d1959606a1b6044820152606401610652565b60088101805460ff191660021790556006810154156114335760068101805460009182905582546040519192916001600160a01b039091169083908381818185875af1925050503d80600081146113da576040519150601f19603f3d011682016040523d82523d6000602084013e6113df565b606091505b50509050806114305760405162461bcd60e51b815260206004820152601e60248201527f4661696c656420746f2073656e642072656d61696e696e672066756e647300006044820152606401610652565b50505b817f562099c771af1034e0fa4d272eeb12a622c0e7b284ff68212cc5ddd2c1b77d34826005015460405161146991815260200190565b60405180910390a25050565b600081815260208190526040902080546001600160a01b031633146114f35760405162461bcd60e51b815260206004820152602e60248201527f4f6e6c79207468652063616d706169676e206f776e65722063616e207061757360448201526d32903a34329031b0b6b830b4b3b760911b6064820152608401610652565b6000600882015460ff16600381111561150e5761150e611844565b1461152b5760405162461bcd60e51b815260040161065290611c3f565b60088101805460ff1916600117905560405182907fab1902ee37c92d1a78dda53814d64b815e7e3ee287d60843a3dbd6954e3206b490600090a25050565b600082815260208190526040902080546001600160a01b031633146115e35760405162461bcd60e51b815260206004820152602a60248201527f4f6e6c79207468652063616d706169676e206f776e65722063616e2077697468604482015269647261772066756e647360b01b6064820152608401610652565b806006015482111561162e5760405162461bcd60e51b8152602060048201526014602482015273496e73756666696369656e742062616c616e636560601b6044820152606401610652565b6000600882015460ff16600381111561164957611649611844565b146116665760405162461bcd60e51b815260040161065290611c3f565b8181600601600082825461167a9190611f02565b909155505080546040516000916001600160a01b03169084908381818185875af1925050503d80600081146116cb576040519150601f19603f3d011682016040523d82523d6000602084013e6116d0565b606091505b50509050806117185760405162461bcd60e51b81526020600482015260146024820152734661696c656420746f2073656e642066756e647360601b6044820152606401610652565b81546040518481526001600160a01b039091169085907ff440aec6b52895984d061d622e6edeba6210f7c3e059be920663140c084560d79060200160405180910390a350505050565b60006020828403121561177357600080fd5b5035919050565b604080825283519082018190526000906020906060840190828701845b828110156117bc5781516001600160a01b031684529284019290840190600101611797565b5050508381038285015284518082528583019183019060005b818110156117f1578351835292840192918401916001016117d5565b5090979650505050505050565b6000815180845260005b8181101561182457602081850181015186830182015201611808565b506000602082860101526020601f19601f83011685010191505092915050565b634e487b7160e01b600052602160045260246000fd5b6004811061187857634e487b7160e01b600052602160045260246000fd5b9052565b6001600160a01b038a168152610120602082018190526000906118a18382018c6117fe565b905082810360408401526118b5818b6117fe565b90508860608401528760808401528660a08401528560c084015282810360e08401526118e181866117fe565b9150506118f261010083018461185a565b9a9950505050505050505050565b6001600160a01b038b168152610140602082018190526000906119258382018d6117fe565b90508281036040840152611939818c6117fe565b90508960608401528860808401528760a08401528660c084015282810360e084015261196581876117fe565b91505061197661010083018561185a565b826101208301529b9a5050505050505050505050565b600060e0820190508882528760208301528660408301528560608301526119b6608083018661185a565b8360a083015282151560c083015298975050505050505050565b634e487b7160e01b600052604160045260246000fd5b600082601f8301126119f757600080fd5b813567ffffffffffffffff80821115611a1257611a126119d0565b604051601f8301601f19908116603f01168101908282118183101715611a3a57611a3a6119d0565b81604052838152866020858801011115611a5357600080fd5b836020870160208301376000602085830101528094505050505092915050565b60008060008060008060c08789031215611a8c57600080fd5b86359550602087013567ffffffffffffffff80821115611aab57600080fd5b611ab78a838b016119e6565b96506040890135915080821115611acd57600080fd5b611ad98a838b016119e6565b9550606089013594506080890135935060a0890135915080821115611afd57600080fd5b50611b0a89828a016119e6565b9150509295509295509295565b600080600080600060a08688031215611b2f57600080fd5b853567ffffffffffffffff80821115611b4757600080fd5b611b5389838a016119e6565b96506020880135915080821115611b6957600080fd5b611b7589838a016119e6565b955060408801359450606088013593506080880135915080821115611b9957600080fd5b50611ba6888289016119e6565b9150509295509295909350565b600060208284031215611bc557600080fd5b81356001600160a01b0381168114611bdc57600080fd5b9392505050565b60008060408385031215611bf657600080fd5b50508035926020909101359150565b600181811c90821680611c1957607f821691505b602082108103611c3957634e487b7160e01b600052602260045260246000fd5b50919050565b60208082526016908201527543616d706169676e206973206e6f742061637469766560501b604082015260600190565b634e487b7160e01b600052601160045260246000fd5b80820180821115611c9857611c98611c6f565b92915050565b6020808252602b908201527f4f6e6c7920636f6e7472616374206f776e65722063616e20706572666f726d2060408201526a3a3434b99030b1ba34b7b760a91b606082015260800190565b8082028115828204841417611c9857611c98611c6f565b600082611d1d57634e487b7160e01b600052601260045260246000fd5b500490565b60208082526022908201527f54686520646561646c696e65206d75737420626520696e207468652066757475604082015261726560f01b606082015260800190565b601f821115611dae57600081815260208120601f850160051c81016020861015611d8b5750805b601f850160051c820191505b81811015611daa57828155600101611d97565b5050505b505050565b815167ffffffffffffffff811115611dcd57611dcd6119d0565b611de181611ddb8454611c05565b84611d64565b602080601f831160018114611e165760008415611dfe5750858301515b600019600386901b1c1916600185901b178555611daa565b600085815260208120601f198616915b82811015611e4557888601518255948401946001909101908401611e26565b5085821015611e635787850151600019600388901b60f8161c191681555b5050505050600190811b01905550565b60a081526000611e8660a08301886117fe565b8281036020840152611e9881886117fe565b90508560408401528460608401528281036080840152611eb881856117fe565b98975050505050505050565b606081526000611ed760608301866117fe565b60208301949094525060400152919050565b600060018201611efb57611efb611c6f565b5060010190565b81810381811115611c9857611c98611c6f56fea2646970667358221220b21cac4884bd64592ea683bccaf0c14c167e3cdc968f441cf3c281f9c10a01c964736f6c63430008130033",
  "linkReferences": {},
  "deployedLinkReferences": {}
}